:020000040800F2
:100000000050002091160008F9150008FF1500089F
:10001000051600080B160008111600080000000065
:10002000000000000000000000000000171600089B
:1000300023160008000000002F1600083B160008D9
:10004000D9160008D9160008D9160008D9160008D4
:10005000D9160008D9160008D9160008D9160008C4
:10006000D9160008D9160008D9160008D9160008B4
:10007000D9160008D9160008D9160008D9160008A4
:10008000D9160008D9160008D9160008D916000894
:10009000D9160008D9160008D9160008D916000884
:1000A000D9160008D9160008D9160008D916000874
:1000B000491600085D160008D9160008D916000870
:1000C000D9160008D9160008D9160008D916000854
:1000D000D9160008D916000871160008D9160008AC
:1000E000D9160008D9160008D9160008000000002B
:1000F0000000000000000000000000000000000000
:0C01000000000000000000005FF808F1A3
:10010C0010B5054C237833B9044B13B10448AFF345
:10011C0000800123237010BD880000200000000027
:10012C006440000808B5034B1BB103490348AFF307
:10013C00008008BD000000008C0000206440000816
:10014C0080B483B000AF7860094A7B6852F82330E2
:10015C00012B06D1064A7B68002142F823100123AB
:10016C0000E0002318460C37BD4680BC704700BF2A
:10017C00A400002080B483B000AF7860044A7B6890
:10018C00012142F8231000BF0C37BD4680BC7047DC
:10019C00A400002080B582B000AF00237B606DE02E
:1001AC003A4A7B6852F8232039497B6841F823206E
:1001BC00384A7B6852F8232034497B6841F8232065
:1001CC00354A7B6852F8232034497B6831F8133068
:1001DC001946104601F046FE034619462D4A7B6827
:1001EC0042F82310294A7B6852F8232029497B685E
:1001FC0051F823309A423ED1244A7B6852F823208E
:10020C0023497B6851F823309A4234D1204A7B68C9
:10021C0052F8232022497B6851F823309A4216D099
:10022C001B4A7B6852F823201D497B6841F8232028
:10023C001B4A7B6852F82330002B1CD1194A7B686F
:10024C00C82142F823107868FFF794FF13E0154A91
:10025C007B6852F823305A1E12497B6841F82320E0
:10026C00104A7B6852F82330002B04D10C4A7B686F
:10027C00012142F823107B6801337B607B68032BE0
:10028C008EDD00BF00BF0837BD4680BD28000020B2
:10029C00380000201800002008000020000000207A
:1002AC00480000205800002080B500AF8C4B1B6824
:1002BC000E2B53D00E2B00F300810C2B03D00D2BE7
:1002CC0000F09880F9E0874B1B68012B10D11920A6
:1002DC0000F0AAFF844B1B68002B07D1824B012234
:1002EC001A6000F001FD00F033FD01E000F040FD6C
:1002FC000120FFF725FF0346012B10D17B4B1B6818
:10030C0001337A4A13607A4B1B680133784A1360C5
:10031C00764B1B68632B02DD744B02221A600020A3
:10032C00FFF70EFF0346012B0CD1012000F07CFFE0
:10033C006B4B0E221A606F4B1B686D4A13606E4B31
:10034C0003221A600220FFF7FBFE0346012B40F04C
:10035C00B680664B1B68694A1360B0E0614B1B6842
:10036C00012B10D1192000F05FFF5F4B1B68002B95
:10037C0007D15D4B01221A6000F0A2FC00F0D8FC02
:10038C0001E000F0F5FC0120FFF7DAFE0346012B3B
:10039C0012D15B4B1B680133594A1360544B1B68D9
:1003AC000133534A1360564B1A68544B1B689A42DC
:1003BC0002DB534B01221A600020FFF7C1FE0346FB
:1003CC00012B0CD1012000F02FFF454B0D221A60A0
:1003DC004C4B1B68464A1360474B04221A600220A0
:1003EC00FFF7AEFE0346012B6BD1454B1B68414A10
:1003FC00136066E03B4B1B68012B10D1192000F0F9
:10040C0013FF394B1B68002B07D1374B01221A60A5
:10041C0000F042FC00F07CFC01E000F0A9FC0120A3
:10042C00FFF78EFE0346012B12D1374B1B680133AD
:10043C00354A13602E4B1B6801332D4A1360324B27
:10044C001A682E4B1B689A4202DB2F4B01221A6052
:10045C000020FFF775FE0346012B1CD1204B012217
:10046C001A60264B1A68234B1B68D31A254A136053
:10047C00224B1B681E4A1360224B1B681E4A1360DA
:10048C00204B1B68642202FB03F3184600F0A4FE09
:10049C00642000F0B5FE0220FFF752FE0346012B4C
:1004AC0011D1194B1B68174A1360144B1A68154B62
:1004BC001B68D31A0F4A136005E000BF04E000BFAD
:1004CC0002E000BF00E000BF0220FFF739FE034648
:1004DC00012B03D1094B1B68054A136000BF80BD7B
:1004EC00B4000020F8000020CC000020C000002048
:1004FC00B80000206C000020BC0000206800002028
:10050C00C800002070000020C400002080B500AF9F
:10051C00994B1B68042B00F2F38001A252F823F0D4
:10052C004105000863050008C705000839060008E6
:10053C009B06000800F01CFC8F4B01221A608F4BAD
:10054C001B68642202FB03F3184600F045FE64208E
:10055C0000F056FEDDE08A4B1B68002B03D000F048
:10056C00C3FB00F0D5FB874B1B68012B14D1642017
:10057C0000F046FE844B1B68013B834A1360834B9F
:10058C001B68013B814A1360804B1B68002B03DC0A
:10059C007F4B1B687D4A13607E4B1B68012B40F020
:1005AC00B1807B4B1B68642202FB03F3184600F0FE
:1005BC0013FE714B02221A60A4E0714B1B68002BD6
:1005CC0003D000F091FB00F0B3FB6E4B1B68012BCA
:1005DC001CD1642000F014FE6B4B1B68013B6A4A73
:1005EC001360694B1B68002B03DC644B1B68664A69
:1005FC001360664B1B68013B644A1360634B1B68BA
:10060C00002B03DC644B1B68604A1360614B1B6856
:10061C00012B79D1594B1B68642202FB03F318465A
:10062C0000F0DAFD544B03221A606DE0544B1B684A
:10063C00002B03D000F030FB00F08AFB514B1B6801
:10064C00012B14D1642000F0DBFD4F4B1B68013BE8
:10065C004D4A13604C4B1B68002B03DC4C4B1B6846
:10066C00494A1360494B1B68013B484A1360494B8C
:10067C001B68012B4AD1464B1B68642202FB03F317
:10068C00184600F0A9FD3C4B04221A603EE03C4B9E
:10069C001B68002B03D000F013FB00F059FB394B07
:1006AC001B68012B1CD1642000F0AAFD364B1B6883
:1006BC00013B354A1360344B1B68002B03DC364B73
:1006CC001B68314A1360314B1B68013B2F4A136086
:1006DC002E4B1B68002B03DC284B1B682B4A13602A
:1006EC002C4B1B68012B13D1244B1B68642202FB7F
:1006FC0003F3184600F070FD1F4B01221A6007E04F
:10070C0000BF06E000BF04E000BF02E000BF00E055
:10071C0000BF0020FFF714FD0346012B2AD1164B16
:10072C001B68012B0BD0144B1B68022B07D0124BF0
:10073C001B68032B03D0104B1B68042B1AD100F041
:10074C0017FB0D4B0C221A60134B1B68134A1360DA
:10075C000F4B1B68124A1360084B1B68114A13603D
:10076C00012000F061FD0C4B1B68074A1360074B1E
:10077C0002221A6000BF80BDB4000020700000206F
:10078C0074000020E0000020B8000020BC00002015
:10079C006C000020D800002068000020C000002061
:1007AC00C8000020C400002080B500AF00F090FF0E
:1007BC0000F058F800F062F900F090F800F034F90D
:1007CC0000F0D8F8204801F0DBFF204801F0D8FFFA
:1007DC0000F012FB0A2200211D4800F063FB0A22E4
:1007EC0000211C4800F05EFB0A2200211A4800F090
:1007FC0059FB0A220021194800F054FB0A2200215F
:10080C00174800F04FFB0021104802F05BF800F095
:10081C001BFC0020FFF794FC0346012B03D100F0D6
:10082C0063FA00F095FA094B1B680A225A634FF4DD
:10083C007A7000F0AFFF054B1B6864225A634FF4CB
:10084C007A7000F0A7FFE2E75C01002014010020A1
:10085C0019050008B5020008A1010008A10B000849
:10086C00D90B000880B590B000AF07F1180328220F
:10087C000021184603F0E8FB3B1D00221A605A6069
:10088C009A60DA601A610223BB610123BB621023F8
:10089C00FB6200237B6307F11803184601F012FB7F
:1008AC000346002B01D000F06FF90F237B6000236F
:1008BC00BB600023FB6000233B6100237B613B1D7D
:1008CC000021184601F07EFD0346002B01D000F0FC
:1008DC005BF900BF4037BD4680BD000080B586B0D7
:1008EC0000AF07F1080300221A605A609A60DA60C0
:1008FC003B4600221A605A601D4B4FF080421A6032
:10090C001B4B41F6FF025A60194B00229A60184BA0
:10091C006322DA60164B00221A61154B00229A6191
:10092C00134801F0DDFE0346002B01D000F02CF93A
:10093C004FF48053BB6007F1080319460C4802F0D2
:10094C002DFA0346002B01D000F01EF900233B606A
:10095C0000237B603B461946054802F0AFFD034679
:10096C00002B01D000F010F900BF1837BD4680BD38
:10097C005C01002080B58AB000AF07F12003002293
:10098C001A605A603B1D00221A605A609A60DA6045
:10099C001A615A619A61224B224A1A60204B3F22FB
:1009AC005A601F4B00229A601D4B40F2E732DA600E
:1009BC001B4B00221A611A4B00229A61184801F055
:1009CC0031FF0346002B01D000F0DEF800233B6220
:1009DC0000237B6207F120031946114802F06EFDDB
:1009EC000346002B01D000F0CFF860237B6000237E
:1009FC00BB600023FB6000237B613B1D002219467A
:100A0C00074802F009F90346002B01D000F0BCF8AE
:100A1C00034800F053FD00BF2837BD4680BD00BF22
:100A2C00140100200004004080B500AF114B124AA5
:100A3C001A60104B4FF416525A600E4B00229A60FB
:100A4C000C4B0022DA600B4B00221A61094B0C2272
:100A5C005A61084B00229A61064B0022DA61054864
:100A6C0002F09CFD0346002B01D000F08DF800BF76
:100A7C0080BD00BFA40100200044004080B588B0B8
:100A8C0000AF07F1100300221A605A609A60DA6016
:100A9C00344B9B69334A43F004039361314B9B699C
:100AAC0003F00403FB60FB682E4B9B692D4A43F05B
:100ABC00080393612B4B9B6903F00803BB60BB6875
:100ACC00284B9B69274A43F010039361254B9B6984
:100ADC0003F010037B607B6800224FF4A86122486E
:100AEC0001F0D7F900224FF48761204801F0D1F9C9
:100AFC0013233B6100237B610123BB6107F11003CE
:100B0C001946194801F02AF84FF4A8633B610123F8
:100B1C007B610023BB610223FB6107F110031946C3
:100B2C00114801F01BF801233B6100237B61012379
:100B3C00BB6107F1100319460C4801F00FF84FF494
:100B4C0087633B6101237B610023BB610223FB6153
:100B5C0007F110031946054801F000F800BF2037D3
:100B6C00BD4680BD0010024000080140000C014051
:100B7C0080B582B000AF786000F07EFB00F004FA24
:100B8C0000BF0837BD4680BD80B400AF72B600BF51
:100B9C00FEE7000080B500AF0B4B1B68042B0CD09C
:100BAC00042B0DDC012B02D0032B03D008E000F04A
:100BBC00FDF806E000F00CF903E000F009F900E0A4
:100BCC0000BF00BF80BD00BFB400002080B500AFE7
:100BDC002D4B1B68132B06D0132B4EDC112B34D052
:100BEC00122B11D049E00320FFF7AAFA0346002B81
:100BFC0045D0254B10221A60244B00221A604FF46A
:100C0C007A7000F025FB3AE0214B1B680D2B07D0C6
:100C1C001F4B1B680C2B03D01D4B1B680E2B03D1D9
:100C2C00194B13221A602DE000F0C0F800F05CF8AC
:100C3C0000F06EF8174B1B68002B22D0124B0F22C2
:100C4C001A60124B01221A601BE0114B1B680D2B12
:100C5C0007D00F4B1B680C2B03D00D4B1B680E2BB6
:100C6C0003D1094B13221A600CE000F081F800F05C
:100C7C00AFF8054B13221A6004E000BF02E000BF7E
:100C8C0000E000BF00BF80BD780000207400002091
:100C9C00B40000201001002080B500AF00224FF4FA
:100CAC008061054801F0F5F801220821034801F0A4
:100CBC00F0F800BF80BD00BF00080140000C0140EF
:100CCC0080B500AF01224FF48061054801F0E1F8D6
:100CDC0001220821034801F0DCF800BF80BD00BFF1
:100CEC0000080140000C014080B500AF01224FF418
:100CFC008061054801F0CDF800220821034801F07D
:100D0C00C8F800BF80BD00BF00080140000C0140C6
:100D1C0080B500AF00222021044801F0BAF801226E
:100D2C001021024801F0B5F800BF80BD000C014055
:100D3C0080B500AF01222021044801F0AAF801225D
:100D4C001021024801F0A5F800BF80BD000C014045
:100D5C0080B500AF01222021044801F09AF800224E
:100D6C001021024801F095F800BF80BD000C014035
:100D7C0080B500AF01224FF480610A4801F089F878
:100D8C0001220821084801F084F80122202106489C
:100D9C0001F07FF801221021034801F07AF800BF1E
:100DAC0080BD00BF00080140000C014080B500AFC1
:100DBC0000224FF48061054801F06BF801224FF4DA
:100DCC008061024801F065F800BF80BD000C014055
:100DDC0080B500AF01224FF48061054801F059F84D
:100DEC0000224FF48071034801F053F800BF80BD1E
:100DFC00000C01400008014080B483B000AF274BC9
:100E0C0000221A7000237B603EE0244B1B781946AD
:100E1C00234A0B469B000B449B00134400221A6090
:100E2C001E4B1B7819461E4A0B469B000B449B001D
:100E3C001344043300221A60184B1B781946184AC5
:100E4C000B469B000B449B001344083300221A6092
:100E5C00124B1B781946124A0B469B000B449B0005
:100E6C0013440C3300221A700C4B1B7819460C4A95
:100E7C000B469B000B449B00134410334FF0FF3286
:100E8C001A607B6801337B607B68272BBDDD00BF5C
:100E9C0000BF0C37BD4680BC704700BFD00000209F
:100EAC00EC01002080B485B000AFF860B9607A60C6
:100EBC00BB68324AA2FB0323DB08BB607B682F4A6A
:100ECC00A2FB0323DB087B602D4B1B78272B4ED812
:100EDC002B4B1B7819462B4A0B469B000B449B0053
:100EEC001344FA681A60264B1B781946254A0B46A0
:100EFC009B000B449B0013440433BA681A60204BCC
:100F0C001B7819461F4A0B469B000B449B0013444D
:100F1C0008337A681A601A4B1B781946194A0B4623
:100F2C009B000B449B0013440C3300221A70144B8F
:100F3C001A78134B1B7819461046124A0B469B0025
:100F4C000B449B001344103318600D4B1B7801337A
:100F5C00DAB20B4B1A700A4B1B785A1E094913460E
:100F6C009B0013449B000B4410331B6801E04FF0B3
:100F7C00FF3318461437BD4680BC7047CDCCCCCC63
:100F8C00D0000020EC01002080B483B000AF00231F
:100F9C007B6048E02A497A6813469B0013449B0007
:100FAC000B4404331B68002B13D025497A68134675
:100FBC009B0013449B000B4404331B68591E2048B0
:100FCC007A6813469B0013449B0003440433196056
:100FDC0026E01B497A6813469B0013449B000B4484
:100FEC000833196816487A6813469B0013449B0013
:100FFC0003440433196012497A6813469B00134466
:10100C009B000B440C331B780133D8B20C497A6823
:10101C0013469B0013449B000B440C3302461A707E
:10102C007B6801337B60074B1B781A467B689342C5
:10103C00B0DB00BF00BF0C37BD4680BC704700BFA3
:10104C00EC010020D000002080B582B000AF00235E
:10105C007B603AE022497A6813469B0013449B005C
:10106C000B440C331B78002B2CD01D497A6813468B
:10107C009B0013449B000B440C331B78013BD8B2F0
:10108C0017497A6813469B0013449B000B440C339E
:10109C0002461A7012497A6813469B0013449B004F
:1010AC000B441B6898470E497A6813469B001344FF
:1010BC009B000B4408331B68002B03D17B6818463C
:1010CC0000F012F87B6801337B60064B1B781A46E4
:1010DC007B689342BEDB00BF00BF0837BD4680BDB6
:1010EC00EC010020D000002080B485B000AF786007
:1010FC0037497A6813469B0013449B000B441B68CA
:10110C00002B01D1FF235EE07B68FB604DE0FB68A8
:10111C005A1C2F4913469B0013449B000B4419681F
:10112C002B48FA6813469B0013449B000344196038
:10113C00FB685A1C264913469B0013449B000B4426
:10114C00043319682248FA6813469B0013449B0029
:10115C00034404331960FB685A1C1D4913469B0059
:10116C0013449B000B44083319681948FA6813465A
:10117C009B0013449B00034408331960FB685A1C02
:10118C00134913469B0013449B000B440C331878F3
:10119C000F49FA6813469B0013449B000B440C3315
:1011AC0002461A70FB680133FB600A4B1B781A4627
:1011BC00FB689342ABDB074B1B78013BDAB2054B68
:1011CC001A70044B1B7818461437BD4680BC704708
:1011DC00EC010020D000002080B483B000AF786018
:1011EC00054A7B681360054B00221A6000BF0C3760
:1011FC00BD4680BC704700BFD4000020D800002042
:10120C0080B483B000AF7860054A7B681360054BEF
:10121C0000221A6000BF0C37BD4680BC704700BF6F
:10122C00DC000020E000002080B483B000AF7860C8
:10123C00054A7B681360054B00221A6000BF0C370F
:10124C00BD4680BC704700BFF4000020F8000020B1
:10125C0080B483B000AF7860054A7B681360054B9F
:10126C0000221A6000BF0C37BD4680BC704700BF1F
:10127C000C0100201001002080B400AF414B1B6812
:10128C00002B0BDD3F4B1B68013B3E4A13603D4B73
:10129C001B68002B02DC3C4B01221A603B4B1B6889
:1012AC00002B0BDD394B1B68013B384A1360374B65
:1012BC001B68002B02DC364B01221A60354B1B6875
:1012CC00002B0BDD334B1B68013B324A1360314B57
:1012DC001B68002B02DC304B01221A602F4B1B6861
:1012EC00002B0BDD2D4B1B68013B2C4A13602B4B49
:1012FC001B68002B02DC2A4B01221A60294B1B684D
:10130C00002B0BDD274B1B68013B264A1360254B3A
:10131C001B68002B02DC244B01221A60234B1B6838
:10132C00002B0BDD214B1B68013B204A13601F4B2C
:10133C001B68002B02DC1E4B01221A601D4B1B6824
:10134C00002B0BDD1B4B1B68013B1A4A1360194B1E
:10135C001B68002B02DC184B01221A60174B1B6810
:10136C00002B0BDD154B1B68013B144A1360134B10
:10137C001B68002B02DC124B01221A6000BFBD4619
:10138C0080BC7047D4000020D8000020DC00002076
:10139C00E0000020E4000020E8000020EC00002029
:1013AC00F0000020F4000020F8000020FC000020D9
:1013BC000001002004010020080100200C01002085
:1013CC001001002080B485B000AF154B9B69144A06
:1013DC0043F001039361124B9B6903F00103BB6063
:1013EC00BB680F4BDB690E4A43F08053D3610C4B47
:1013FC00DB6903F080537B607B680A4B5B68FB60A6
:10140C00FB6823F0E063FB60FB6843F00073FB6058
:10141C00044AFB68536000BF1437BD4680BC70475C
:10142C00001002400000014080B584B000AF78602D
:10143C007B681B68B3F1804F13D10C4BDB690B4AF3
:10144C0043F00103D361094BDB6903F00103FB603B
:10145C00FB68002200211C2000F097FA1C2000F0F1
:10146C00B0FA00BF1037BD4680BD00BF001002406F
:10147C0080B584B000AF78607B681B680D4A9342DE
:10148C0013D10D4BDB690C4A43F00203D3610A4BB9
:10149C00DB6903F00203FB60FB68002200211D20C6
:1014AC0000F073FA1D2000F08CFA00BF1037BD4617
:1014BC0080BD00BF000400400010024080B588B021
:1014CC0000AF786007F10C0300221A605A609A6032
:1014DC00DA607B681B68184A934229D1174B9B69C9
:1014EC00164A43F010039361144B9B6903F01003ED
:1014FC00BB60BB684023FB6002233B610223BB61E2
:10150C0007F10C0319460E4800F028FB0D4B5B68E5
:10151C00FB61FB6923F44063FB61FB6943F0E0630F
:10152C00FB61FB6943F44063FB61064AFB69536052
:10153C0000BF2037BD4680BD0004004000100240B3
:10154C00001001400000014080B588B000AF786009
:10155C0007F1100300221A605A609A60DA607B6807
:10156C001B681F4A934237D11E4BDB691D4A43F45B
:10157C000033D3611B4BDB6903F40033FB60FB6866
:10158C00184B9B69174A43F004039361154B9B69F5
:10159C0003F00403BB60BB6804233B6102237B6143
:1015AC000323FB6107F1100319460F4800F0D6FA2C
:1015BC0008233B6100237B610023BB6107F110030F
:1015CC001946094800F0CAFA00220021262000F032
:1015DC00DCF9262000F0F5F900BF2037BD4680BDB0
:1015EC0000440040001002400008014080B400AFED
:1015FC00FEE780B400AFFEE780B400AFFEE780B436
:10160C0000AFFEE780B400AFFEE780B400AF00BFD0
:10161C00BD4680BC704780B400AF00BFBD4680BCE7
:10162C00704780B400AF00BFBD4680BC704780B52A
:10163C0000AF00F093F800BF80BD000080B500AF94
:10164C00024801F0E1F900BF80BD00BF5C01002041
:10165C0080B500AF024801F0D7F900BF80BD00BFD4
:10166C001401002080B500AF024801F0E7FF00BF75
:10167C0080BD00BFA401002080B400AF00BFBD46F8
:10168C0080BC7047FFF7F8FF0B480C490C4A00234D
:10169C0002E0D458C4500433C4188C42F9D3094A1C
:1016AC00094C002301E013600432A242FBD302F088
:1016BC00A7FCFFF779F87047000000208800002095
:1016CC00B04000088800002010050020FEE7000054
:1016DC0080B500AF084B1B68074A43F0100313603A
:1016EC00032000F047F90F2000F008F8FFF76AFE1E
:1016FC000023184680BD00BF0020024080B582B098
:10170C0000AF7860124B1A68124B1B7819464FF4D5
:10171C007A73B3FBF1F3B2FBF3F3184600F05FF905
:10172C000346002B01D001230EE07B680F2B0AD857
:10173C00002279684FF0FF3000F027F9064A7B68E9
:10174C001360002300E0012318460837BD4680BD16
:10175C007C000020840000208000002080B400AFBA
:10176C00054B1B781A46054B1B681344034A136040
:10177C0000BFBD4680BC7047840000200C050020D3
:10178C0080B400AF024B1B681846BD4680BC704746
:10179C000C05002080B584B000AF7860FFF7F0FF37
:1017AC00B8607B68FB60FB68B3F1FF3F05D00A4B68
:1017BC001B781A46FB681344FB6000BFFFF7E0FF81
:1017CC000246BB68D31AFA689A42F7D800BF00BF2A
:1017DC001037BD4680BD00BF8400002080B485B0AA
:1017EC0000AF78607B6803F00703FB600C4BDB6891
:1017FC00BB60BA684FF6FF031340BB60FB681A026C
:10180C00BB68134343F0BF6343F40033BB60044A2B
:10181C00BB68D36000BF1437BD4680BC704700BFA7
:10182C0000ED00E080B400AF044BDB681B0A03F052
:10183C0007031846BD4680BC704700BF00ED00E0B2
:10184C0080B483B000AF0346FB7197F90730002BCF
:10185C000BDBFB7903F01F02064997F907305B0994
:10186C00012000FA02F241F8232000BF0C37BD46DC
:10187C0080BC704700E100E080B483B000AF034649
:10188C003960FB7197F90730002B0ADB3B68DAB241
:10189C000C4997F907301201D2B20B4483F800239C
:1018AC000AE03B68DAB20849FB7903F00F03043B0A
:1018BC001201D2B20B441A7600BF0C37BD4680BC65
:1018CC00704700BF00E100E000ED00E080B489B09B
:1018DC0000AFF860B9607A60FB6803F00703FB6146
:1018EC00FB69C3F10703042B28BF0423BB61FB690D
:1018FC000433062B02D9FB69033B00E000237B6118
:10190C004FF0FF32BB6902FA03F3DA43BB681A40AB
:10191C007B699A404FF0FF317B6901FA03F3D9439D
:10192C007B680B40134318462437BD4680BC704778
:10193C0080B582B000AF78607B68013BB3F1807FEB
:10194C0001D301230FE00A4A7B68013B53600F214E
:10195C004FF0FF30FFF790FF054B00229A60044BCD
:10196C0007221A60002318460837BD4680BD00BF09
:10197C0010E000E080B582B000AF78607868FFF7C7
:10198C002DFF00BF0837BD4680BD80B586B000AFC7
:10199C000346B9607A60FB7300237B61FFF742FF5B
:1019AC0078617A68B9687869FFF790FF024697F911
:1019BC000F3011461846FFF75FFF00BF1837BD46C2
:1019CC0080BD80B582B000AF0346FB7197F907303C
:1019DC001846FFF735FF00BF0837BD4680BD80B500
:1019EC0082B000AF78607868FFF7A2FF0346184614
:1019FC000837BD4680BD80B485B000AF7860002349
:101A0C00FB737B6893F82130DBB2022B08D07B6828
:101A1C0004229A637B68002283F82020012320E0B3
:101A2C007B681B681A687B681B6822F00E021A60C0
:101A3C007B681B681A687B681B6822F001021A60BD
:101A4C007B681A6C7B68DB6B012101FA02F25A602D
:101A5C007B68012283F821207B68002283F82020F8
:101A6C00FB7B18461437BD4680BC704780B584B0EC
:101A7C0000AF78600023FB737B6893F82130DBB2F6
:101A8C00022B05D07B6804229A630123FB7351E07F
:101A9C007B681B681A687B681B6822F00E021A6050
:101AAC007B681B681A687B681B6822F001021A604D
:101ABC007B681B68224A934229D07B681B68214AA9
:101ACC00934222D07B681B681F4A93421AD07B68D2
:101ADC001B681E4A934212D07B681B681C4A9342B7
:101AEC000AD07B681B681B4A934202D14FF48013C7
:101AFC000EE04FF080730BE04FF4803308E04FF4AE
:101B0C00805305E04FF4807302E0102300E00123C2
:101B1C00114A53607B68012283F821207B680022E4
:101B2C0083F820207B685B6B002B03D07B685B6B9E
:101B3C0078689847FB7B18461037BD4680BD00BFC0
:101B4C00080002401C0002403000024044000240E9
:101B5C00580002406C0002400000024080B48BB080
:101B6C0000AF7860396000237B6200233B6269E13F
:101B7C0001227B6A02FA03F3FB613B681B68FA697A
:101B8C001340BB61BA69FB699A4240F058813B68CB
:101B9C005B689A4A93425ED0984A934275D8984AA9
:101BAC00934258D0964A93426FD8964A934252D059
:101BBC00944A934269D8944A93424CD0924A9342A5
:101BCC0063D8924A934246D0904A93425DD8122BE6
:101BDC002AD8122B59D801A252F823F0631C000802
:101BEC003D1C00084F1C0008911C0008971C0008A5
:101BFC00971C0008971C0008971C0008971C0008ED
:101C0C00971C0008971C0008971C0008971C0008DC
:101C1C00971C0008971C0008971C0008971C0008CC
:101C2C00451C0008591C0008794A934213D02CE03B
:101C3C003B68DB683B6229E03B68DB6804333B6252
:101C4C0024E03B68DB6808333B621FE03B68DB68E1
:101C5C000C333B621AE03B689B68002B02D10423D7
:101C6C003B6213E03B689B68012B05D108233B6268
:101C7C007B68FA691A6109E008233B627B68FA69A0
:101C8C005A6103E000233B6200E000BFBB69FF2BFD
:101C9C0001D87B6801E07B6804337B61BB69FF2B57
:101CAC0002D87B6A9B0002E07B6A083B9B003B618D
:101CBC007B691A680F213B6901FA03F3DB431A4075
:101CCC00396A3B6901FA03F31A437B691A603B6872
:101CDC005B6803F08053002B00F0B1804D4B9B6987
:101CEC004C4A43F0010393614A4B9B6903F0010397
:101CFC00BB60BB68484A7B6A9B08023352F82330AE
:101D0C00FB607B6A03F003039B000F2202FA03F3D0
:101D1C00DB43FA681340FB607B68404A934213D064
:101D2C007B683F4A93420DD07B683E4A934207D072
:101D3C007B683D4A934201D1032306E0042304E06F
:101D4C00022302E0012300E000237A6A02F003027E
:101D5C0092009340FA681343FB602F497B6A9B08FF
:101D6C000233FA6841F823203B685B6803F4801364
:101D7C00002B06D02D4B9A682C49BB6913438B6002
:101D8C0006E02A4B9A68BB69DB43284913408B60F9
:101D9C003B685B6803F40013002B06D0234BDA6816
:101DAC002249BB691343CB6006E0204BDA68BB6960
:101DBC00DB431E491340CB603B685B6803F4003384
:101DCC00002B06D0194B5A681849BB6913434B605A
:101DDC0006E0164B5A68BB69DB43144913404B6051
:101DEC003B685B6803F48033002B21D00F4B1A68DF
:101DFC000E49BB6913430B6021E000BF0000321099
:101E0C000000311000002210000021100000121000
:101E1C0000001110001002400000014000080140B9
:101E2C00000C01400010014000140140000401406E
:101E3C000B4B1A68BB69DB43094913400B607B6A87
:101E4C0001337B623B681A687B6A22FA03F3002B2E
:101E5C007FF48EAE00BF00BF2C37BD4680BC7047F0
:101E6C000004014080B485B000AF78600B467B80E5
:101E7C007B689A687B881340002B02D00123FB738C
:101E8C0001E00023FB73FB7B18461437BD4680BC76
:101E9C00704780B483B000AF78600B467B801346EC
:101EAC007B707B78002B03D07A887B681A6103E007
:101EBC007B881A047B681A6100BF0C37BD4680BC56
:101ECC007047000080B586B000AF78607B68002B4F
:101EDC0001D101236CE27B681B6803F00103002B2A
:101EEC0000F08780924B5B6803F00C03042B0CD042
:101EFC008F4B5B6803F00C03082B12D18C4B5B6887
:101F0C0003F48033B3F5803F0BD1894B1B6803F48A
:101F1C000033002B6CD07B685B68002B68D10123ED
:101F2C0046E27B685B68B3F5803F06D1804B1B684B
:101F3C007F4A43F4803313602EE07B685B68002B90
:101F4C000CD17B4B1B687A4A23F480331360784B9B
:101F5C001B68774A23F4802313601DE07B685B6861
:101F6C00B3F5A02F0CD1724B1B68714A43F480233C
:101F7C0013606F4B1B686E4A43F4803313600BE0A5
:101F8C006B4B1B686A4A23F480331360684B1B68E5
:101F9C00674A23F4802313607B685B68002B13D0A3
:101FAC00FFF7EEFB386108E0FFF7EAFB02463B69FE
:101FBC00D31A642B01D90323FAE15D4B1B6803F49C
:101FCC000033002BF0D014E0FFF7DAFB386108E0A7
:101FDC00FFF7D6FB02463B69D31A642B01D90323C6
:101FEC00E6E1534B1B6803F40033002BF0D100E007
:101FFC0000BF7B681B6803F00203002B63D04C4BC3
:10200C005B6803F00C03002B0BD0494B5B6803F0AF
:10201C000C03082B1CD1464B5B6803F48033002B5C
:10202C0016D1434B1B6803F00203002B05D07B68D1
:10203C001B69012B01D00123BAE13D4B1B6823F036
:10204C00F8027B685B69DB00394913430B603AE0AB
:10205C007B681B69002B20D0364B01221A60FFF7DE
:10206C008FFB386108E0FFF78BFB02463B69D31A04
:10207C00022B01D903239BE12D4B1B6803F00203B8
:10208C00002BF0D02A4B1B6823F0F8027B685B69AD
:10209C00DB00274913430B6015E0264B00221A6026
:1020AC00FFF76EFB386108E0FFF76AFB02463B69FD
:1020BC00D31A022B01D903237AE11D4B1B6803F0C1
:1020CC000203002BF0D17B681B6803F00803002B84
:1020DC003AD07B689B69002B19D0174B01221A60F0
:1020EC00FFF74EFB386108E0FFF74AFB02463B69FD
:1020FC00D31A022B01D903235AE10D4B5B6A03F06F
:10210C000203002BF0D0012000F0CCFA1CE00A4BAB
:10211C0000221A60FFF734FB38610FE0FFF730FB49
:10212C0002463B69D31A022B08D9032340E100BFB6
:10213C000010024000004242800442429E4B5B6A07
:10214C0003F00203002BE9D17B681B6803F0040346
:10215C00002B00F0A6800023FB75974BDB6903F086
:10216C008053002B0DD1944BDB69934A43F0805381
:10217C00D361914BDB6903F08053BB60BB680123D7
:10218C00FB758E4B1B6803F48073002B18D18B4BA3
:10219C001B688A4A43F480731360FFF7F1FA3861C5
:1021AC0008E0FFF7EDFA02463B69D31A642B01D91C
:1021BC000323FDE0814B1B6803F48073002BF0D0EC
:1021CC007B68DB68012B06D17B4B1B6A7A4A43F098
:1021DC00010313622DE07B68DB68002B0CD1764B7E
:1021EC001B6A754A23F001031362734B1B6A724A14
:1021FC0023F0040313621CE07B68DB68052B0CD115
:10220C006D4B1B6A6C4A43F0040313626A4B1B6AE6
:10221C00694A43F0010313620BE0674B1B6A664A81
:10222C0023F001031362644B1B6A634A23F004031B
:10223C0013627B68DB68002B15D0FFF7A1FA3861BD
:10224C000AE0FFF79DFA02463B69D31A41F2883245
:10225C00934201D90323ABE0574B1B6A03F00203F3
:10226C00002BEED014E0FFF78BFA38610AE0FFF791
:10227C0087FA02463B69D31A41F28832934201D95C
:10228C00032395E04C4B1B6A03F00203002BEED1A9
:10229C00FB7D012B05D1484BDB69474A23F080536A
:1022AC00D3617B68DB69002B00F08180424B5B685B
:1022BC0003F00C03082B61D07B68DB69022B46D141
:1022CC003F4B00221A60FFF75BFA386108E0FFF71A
:1022DC0057FA02463B69D31A022B01D9032367E054
:1022EC00354B1B6803F00073002BF0D17B681B6A25
:1022FC00B3F5803F08D1304B5B6823F400327B6828
:10230C009B682D4913434B602B4B5B6823F4741271
:10231C007B68196A7B685B6A0B43274913434B60E4
:10232C00274B01221A60FFF72BFA386108E0FFF700
:10233C0027FA02463B69D31A022B01D9032337E053
:10234C001D4B1B6803F00073002BF0D02FE01C4BCF
:10235C0000221A60FFF714FA386108E0FFF710FA50
:10236C0002463B69D31A022B01D9032320E0124BFE
:10237C001B6803F00073002BF0D118E07B68DB695D
:10238C00012B01D1012313E00B4B5B68FB60FB6855
:10239C0003F480327B681B6A9A4206D1FB6803F413
:1023AC0070127B685B6A9A4201D0012300E0002323
:1023BC0018461837BD4680BD001002400070004022
:1023CC006000424280B584B000AF786039607B68B1
:1023DC00002B01D10123D0E06A4B1B6803F00703EB
:1023EC003A689A4210D9674B1B6823F0070265497B
:1023FC003B6813430B60634B1B6803F007033A689D
:10240C009A4201D00123B8E07B681B6803F00203F9
:10241C00002B20D07B681B6803F00403002B05D035
:10242C00594B5B68584A43F4E06353607B681B6804
:10243C0003F00803002B05D0534B5B68524A43F45E
:10244C0060535360504B5B6823F0F0027B689B68D1
:10245C004D4913434B607B681B6803F00103002B51
:10246C0040D07B685B68012B07D1474B1B6803F49A
:10247C000033002B15D101237FE07B685B68022BB6
:10248C0007D1414B1B6803F00073002B09D10123CA
:10249C0073E03D4B1B6803F00203002B01D10123B9
:1024AC006BE0394B5B6823F003027B685B68364951
:1024BC0013434B60FFF764F9F8600AE0FFF760F92B
:1024CC000246FB68D31A41F28832934201D90323A6
:1024DC0053E02D4B5B6803F00C027B685B689B0040
:1024EC009A42EBD1274B1B6803F007033A689A42D8
:1024FC0010D2244B1B6823F0070222493B6813437C
:10250C000B60204B1B6803F007033A689A4201D01A
:10251C00012332E07B681B6803F00403002B08D016
:10252C00194B5B6823F4E0627B68DB681649134344
:10253C004B607B681B6803F00803002B09D0124B1F
:10254C005B6823F460527B681B69DB000E49134304
:10255C004B6000F021F802460B4B5B681B0903F043
:10256C000F030A49CB5C22FA03F3094A1360094BA7
:10257C001B681846FFF7C2F8002318461037BD46F3
:10258C0080BD00BF00200240001002407C400008CB
:10259C007C0000208000002080B487B000AF0023B6
:1025AC00FB600023BB6000237B6100237B60002366
:1025BC003B611E4B5B68FB60FB6803F00C03042B58
:1025CC0002D0082B03D027E0194B3B6127E0FB68B6
:1025DC009B0C03F00F03174AD35C7B60FB6803F47E
:1025EC008033002B10D0114B5B685B0C03F00103A4
:1025FC00114AD35CBB607B680D4A02FB03F2BB68DB
:10260C00B2FBF3F37B6104E07B680C4A02FB03F33F
:10261C007B617B693B6102E0054B3B6100BF3B6921
:10262C0018461C37BD4680BC704700BF00100240E6
:10263C0000127A0094400008A440000800093D00F4
:10264C0080B400AF024B1B681846BD4680BC704777
:10265C007C00002080B500AFFFF7F2FF0246054B6F
:10266C005B681B0A03F007030349CB5C22FA03F3F4
:10267C00184680BD001002408C40000880B500AFA9
:10268C00FFF7DEFF0246054B5B68DB0A03F007032E
:10269C000349CB5C22FA03F3184680BD00100240BC
:1026AC008C40000880B485B000AF78600A4B1B6882
:1026BC000A4AA2FB03235B0A7A6802FB03F3FB6062
:1026CC0000BFFB685A1EFA60002BF9D100BF00BF97
:1026DC001437BD4680BC70477C000020D34D62107F
:1026EC0080B582B000AF78607B68002B01D10123EC
:1026FC0041E07B6893F83D30DBB2002B06D17B6860
:10270C00002283F83C207868FEF78EFE7B6802225C
:10271C0083F83D207B681A687B68043319461046A1
:10272C0000F028FC7B68012283F846207B6801229C
:10273C0083F83E207B68012283F83F207B680122CE
:10274C0083F840207B68012283F841207B680122BA
:10275C0083F842207B68012283F843207B680122A6
:10276C0083F844207B68012283F845207B68012292
:10277C0083F83D20002318460837BD4680BD000075
:10278C0080B485B000AF78607B6893F83D30DBB2E5
:10279C00012B01D001233AE07B68022283F83D2013
:1027AC007B681B68DA687B681B6842F00102DA60A0
:1027BC007B681B68184A93420ED07B681B68B3F188
:1027CC00804F09D07B681B68144A934204D07B6805
:1027DC001B68134A934211D17B681B689B6803F0FA
:1027EC000703FB60FB68062B10D07B681B681A681C
:1027FC007B681B6842F001021A6007E07B681B686B
:10280C001A687B681B6842F001021A6000231846A4
:10281C001437BD4680BC7047002C014000040040BA
:10282C000008004080B582B000AF78607B68002B58
:10283C0001D1012341E07B6893F83D30DBB2002BE2
:10284C0006D17B68002283F83C207868FEF710FEE6
:10285C007B68022283F83D207B681A687B6804330E
:10286C001946104600F086FB7B68012283F846204F
:10287C007B68012283F83E207B68012283F83F208D
:10288C007B68012283F840207B68012283F8412079
:10289C007B68012283F842207B68012283F8432065
:1028AC007B68012283F844207B68012283F8452051
:1028BC007B68012283F83D20002318460837BD466B
:1028CC0080BD000080B584B000AF786039603B6893
:1028DC00002B09D17B6893F83E30DBB2012B14BF7F
:1028EC0001230023DBB222E03B68042B09D17B6877
:1028FC0093F83F30DBB2012B14BF01230023DBB272
:10290C0015E03B68082B09D17B6893F84030DBB2AB
:10291C00012B14BF01230023DBB208E07B6893F882
:10292C004130DBB2012B14BF01230023DBB2002B9F
:10293C0001D001235EE03B68002B04D17B680222AE
:10294C0083F83E2013E03B68042B04D17B68022201
:10295C0083F83F200BE03B68082B04D17B680222F4
:10296C0083F8402003E07B68022283F841207B68D7
:10297C001B6801223968184600F07CFD7B681B68D7
:10298C001E4A934207D17B681B685A6C7B681B6894
:10299C0042F400425A647B681B68184A93420ED07A
:1029AC007B681B68B3F1804F09D07B681B68144AA5
:1029BC00934204D07B681B68124A934211D17B6806
:1029CC001B689B6803F00703FB60FB68062B10D0A9
:1029DC007B681B681A687B681B6842F001021A60EE
:1029EC0007E07B681B681A687B681B6842F0010271
:1029FC001A60002318461037BD4680BD002C0140DC
:102A0C00000400400008004080B582B000AF786040
:102A1C007B681B681B6903F00203022B22D17B68C5
:102A2C001B68DB6803F00203022B1BD17B681B685D
:102A3C006FF002021A617B6801221A777B681B68AF
:102A4C009B6903F00303002B03D0786800F076FA3F
:102A5C0005E0786800F069FA786800F078FA7B682D
:102A6C0000221A777B681B681B6903F00403042B94
:102A7C0022D17B681B68DB6803F00403042B1BD199
:102A8C007B681B686FF004021A617B6802221A775C
:102A9C007B681B689B6903F44073002B03D0786838
:102AAC0000F04CFA05E0786800F03FFA786800F026
:102ABC004EFA7B6800221A777B681B681B6903F04F
:102ACC000803082B22D17B681B68DB6803F0080322
:102ADC00082B1BD17B681B686FF008021A617B689E
:102AEC0004221A777B681B68DB6903F00303002B55
:102AFC0003D0786800F022FA05E0786800F015FA47
:102B0C00786800F024FA7B6800221A777B681B68CF
:102B1C001B6903F01003102B22D17B681B68DB6848
:102B2C0003F01003102B1BD17B681B686FF0100295
:102B3C001A617B6808221A777B681B68DB6903F4CF
:102B4C004073002B03D0786800F0F8F905E0786842
:102B5C0000F0EBF9786800F0FAF97B6800221A773C
:102B6C007B681B681B6903F00103012B0ED17B688A
:102B7C001B68DB6803F00103012B07D17B681B6822
:102B8C006FF001021A617868FDF7F2FF7B681B6831
:102B9C001B6903F08003802B0ED17B681B68DB68FC
:102BAC0003F08003802B07D17B681B686FF08002D9
:102BBC001A61786800F0E9FC7B681B681B6903F0FC
:102BCC004003402B0ED17B681B68DB6803F040038D
:102BDC00402B07D17B681B686FF040021A61786844
:102BEC0000F0BEF97B681B681B6903F02003202BE7
:102BFC000ED17B681B68DB6803F02003202B07D108
:102C0C007B681B686FF020021A61786800F0B4FCD6
:102C1C0000BF0837BD4680BD80B586B000AFF860F8
:102C2C00B9607A600023FB75FB6893F83C30012B8C
:102C3C0001D10223AEE0FB68012283F83C207B68C3
:102C4C000C2B00F29F8001A252F823F08D2C00086F
:102C5C00912D0008912D0008912D0008CD2C000815
:102C6C00912D0008912D0008912D00080F2D0008C2
:102C7C00912D0008912D0008912D00084F2D000872
:102C8C00FB681B68B968184600F0D6F9FB681B682E
:102C9C009A69FB681B6842F008029A61FB681B6822
:102CAC009A69FB681B6822F004029A61FB681B6836
:102CBC009969BB681A69FB681B680A439A6164E0EE
:102CCC00FB681B68B968184600F01CFAFB681B68A7
:102CDC009A69FB681B6842F400629A61FB681B6886
:102CEC009A69FB681B6822F480629A61FB681B6816
:102CFC009969BB681B691A02FB681B680A439A61D5
:102D0C0043E0FB681B68B968184600F065FAFB687D
:102D1C001B68DA69FB681B6842F00802DA61FB6821
:102D2C001B68DA69FB681B6822F00402DA61FB6835
:102D3C001B68D969BB681A69FB681B680A43DA61AE
:102D4C0023E0FB681B68B968184600F0AFFAFB6813
:102D5C001B68DA69FB681B6842F40062DA61FB6885
:102D6C001B68DA69FB681B6822F48062DA61FB6815
:102D7C001B68D969BB681B691A02FB681B680A438C
:102D8C00DA6102E00123FB7500BFFB68002283F8C7
:102D9C003C20FB7D18461837BD4680BD80B584B0FD
:102DAC0000AF786039600023FB737B6893F83C308C
:102DBC00012B01D10223B4E07B68012283F83C2073
:102DCC007B68022283F83D207B681B689B68BB6094
:102DDC00BB6823F07703BB60BB6823F47F43BB6005
:102DEC007B681B68BA689A603B681B68B3F5005F28
:102DFC003ED0B3F5005F00F28780B3F5805F00F042
:102E0C008680B3F5805F7FD8702B1AD0702B7BD85F
:102E1C00602B50D0602B77D8502B3CD0502B73D8D4
:102E2C00402B58D0402B6FD8302B64D0302B6BD824
:102E3C00202B60D0202B67D8002B5CD0102B5AD0C5
:102E4C0062E07B6818683B6899683B685A683B6825
:102E5C00DB6800F0F0FA7B681B689B68BB60BB68A2
:102E6C0043F07703BB607B681B68BA689A604FE0DD
:102E7C007B6818683B6899683B685A683B68DB68F4
:102E8C0000F0D9FA7B681B689A687B681B6842F46F
:102E9C0080429A603CE07B6818683B6859683B68E4
:102EAC00DB681A4600F050FA7B681B685021184604
:102EBC0000F0A7FA2CE07B6818683B6859683B68FF
:102ECC00DB681A4600F06EFA7B681B6860211846B6
:102EDC0000F097FA1CE07B6818683B6859683B68FF
:102EEC00DB681A4600F030FA7B681B6840211846F4
:102EFC0000F087FA0CE07B681A683B681B6819467F
:102F0C00104600F07EFA03E00123FB7300E000BFE3
:102F1C007B68012283F83D207B68002283F83C20EB
:102F2C00FB7B18461037BD4680BD80B483B000AF24
:102F3C00786000BF0C37BD4680BC704780B483B04E
:102F4C0000AF786000BF0C37BD4680BC704780B4C2
:102F5C0083B000AF786000BF0C37BD4680BC7047B3
:102F6C0080B483B000AF786000BF0C37BD4680BC26
:102F7C007047000080B485B000AF786039607B6822
:102F8C001B68FB607B68294A93420BD07B68B3F1CA
:102F9C00804F07D07B68264A934203D07B68254A32
:102FAC00934208D1FB6823F07003FB603B685B68BD
:102FBC00FA681343FB607B681C4A93420BD07B6816
:102FCC00B3F1804F07D07B68194A934203D07B68DA
:102FDC00184A934208D1FB6823F44073FB603B68AA
:102FEC00DB68FA681343FB60FB6823F080023B68E4
:102FFC005B691343FB607B68FA681A603B689A68EC
:10300C007B68DA623B681A687B689A627B68074A5D
:10301C00934203D13B681A697B681A637B6801226F
:10302C005A6100BF1437BD4680BC7047002C01406C
:10303C00000400400008004080B487B000AF786006
:10304C0039607B681B6A7B617B681B6A23F0010219
:10305C007B681A627B685B683B617B689B69FB6081
:10306C00FB6823F07003FB60FB6823F00303FB6039
:10307C003B681B68FA681343FB607B6923F002030F
:10308C007B613B689B687A6913437B617B681C4A54
:10309C0093420CD17B6923F008037B613B68DB68AE
:1030AC007A6913437B617B6923F004037B617B6842
:1030BC00134A934211D13B6923F480733B613B6902
:1030CC0023F400733B613B685B693A6913433B61D2
:1030DC003B689B693A6913433B617B683A695A6068
:1030EC007B68FA689A613B685A687B685A637B68AC
:1030FC007A691A6200BF1C37BD4680BC704700BF9E
:10310C00002C014080B487B000AF786039607B68D8
:10311C001B6A7B617B681B6A23F010027B681A6256
:10312C007B685B683B617B689B69FB60FB6823F495
:10313C00E043FB60FB6823F44073FB603B681B6857
:10314C001B02FA681343FB607B6923F020037B614D
:10315C003B689B681B017A6913437B617B681D4A42
:10316C0093420DD17B6923F080037B613B68DB6864
:10317C001B017A6913437B617B6923F040037B61FC
:10318C007B68144A934213D13B6923F480633B61FF
:10319C003B6923F400633B613B685B699B003A69C4
:1031AC0013433B613B689B699B003A6913433B614A
:1031BC007B683A695A607B68FA689A613B685A681E
:1031CC007B689A637B687A691A6200BF1C37BD46BC
:1031DC0080BC7047002C014080B487B000AF786091
:1031EC0039607B681B6A7B617B681B6A23F4807285
:1031FC007B681A627B685B683B617B68DB69FB60A0
:10320C00FB6823F07003FB60FB6823F00303FB6097
:10321C003B681B68FA681343FB607B6923F40073FB
:10322C007B613B689B681B027A6913437B617B68FB
:10323C001D4A93420DD17B6923F400637B613B688B
:10324C00DB681B027A6913437B617B6923F480631F
:10325C007B617B68144A934213D13B6923F48053FE
:10326C003B613B6923F400533B613B685B691B0189
:10327C003A6913433B613B689B691B013A691343F1
:10328C003B617B683A695A607B68FA68DA613B6833
:10329C005A687B68DA637B687A691A6200BF1C37EC
:1032AC00BD4680BC704700BF002C014080B487B085
:1032BC0000AF786039607B681B6A3B617B681B6A76
:1032CC0023F480527B681A627B685B687B617B6845
:1032DC00DB69FB60FB6823F4E043FB60FB6823F4D1
:1032EC004073FB603B681B681B02FA681343FB606E
:1032FC003B6923F400533B613B689B681B033A69B1
:10330C0013433B617B680F4A934209D17B6923F4D9
:10331C0080437B613B685B699B017A6913437B61EA
:10332C007B687A695A607B68FA68DA613B685A682C
:10333C007B681A647B683A691A6200BF1C37BD4609
:10334C0080BC7047002C014080B487B000AFF8609F
:10335C00B9607A60FB681B6A7B61FB681B6A23F0AF
:10336C000102FB681A62FB689B693B613B6923F0B5
:10337C00F0033B617B681B013A6913433B617B693A
:10338C0023F00A037B617A69BB6813437B61FB689A
:10339C003A699A61FB687A691A6200BF1C37BD46AC
:1033AC0080BC704780B487B000AFF860B9607A60B9
:1033BC00FB681B6A7B61FB681B6A23F01002FB68CD
:1033CC001A62FB689B693B613B6923F470433B6168
:1033DC007B681B033A6913433B617B6923F0A003B1
:1033EC007B61BB681B017A6913437B61FB683A699B
:1033FC009A61FB687A691A6200BF1C37BD4680BCB3
:10340C00704780B485B000AF786039607B689B688A
:10341C00FB60FB6823F07003FB603A68FB681343A6
:10342C0043F00703FB607B68FA689A6000BF1437AF
:10343C00BD4680BC704780B487B000AFF860B960FF
:10344C007A603B60FB689B687B617B6923F47F43FC
:10345C007B613B681A027B681A43BB6813437A6929
:10346C0013437B61FB687A699A6000BF1C37BD46C9
:10347C0080BC704780B487B000AFF860B9607A60E8
:10348C00BB6803F01F03012202FA03F37B61FB68A4
:10349C001A6A7B69DB431A40FB681A62FB681A6A7A
:1034AC00BB6803F01F03796801FA03F31A43FB6846
:1034BC001A6200BF1C37BD4680BC704780B485B013
:1034CC0000AF786039607B6893F83C30012B01D1F8
:1034DC00022346E07B68012283F83C207B680222B1
:1034EC0083F83D207B681B685B68FB607B681B680E
:1034FC009B68BB60FB6823F07003FB603B681B6838
:10350C00FA681343FB607B681B68FA685A607B6837
:10351C001B68164A93420ED07B681B68B3F1804F30
:10352C0009D07B681B68124A934204D07B681B68E5
:10353C00104A93420CD1BB6823F08003BB603B68FC
:10354C005B68BA681343BB607B681B68BA689A6097
:10355C007B68012283F83D207B68002283F83C20A5
:10356C00002318461437BD4680BC7047002C014020
:10357C00000400400008004080B483B000AF7860C5
:10358C0000BF0C37BD4680BC704780B483B000AF21
:10359C00786000BF0C37BD4680BC704780B582B0E8
:1035AC0000AF78607B68002B01D1012342E07B687F
:1035BC0093F84130DBB2002B06D17B68002283F8F4
:1035CC0040207868FDF7C0FF7B68242283F84120F7
:1035DC007B681B68DA687B681B6822F40052DA602F
:1035EC00786800F07FFC7B681B681A697B681B6835
:1035FC0022F490421A617B681B685A697B681B68CD
:10360C0022F02A025A617B681B68DA687B681B68A7
:10361C0042F40052DA607B6800225A647B682022F4
:10362C0083F841207B68202283F842207B680022AB
:10363C005A63002318460837BD4680BD80B5BAB022
:10364C0000AF78607B681B681B68C7F8E4307B6848
:10365C001B68DB68C7F8E0307B681B685B69C7F8E0
:10366C00DC300023C7F8D8300023C7F8D430D7F8A3
:10367C00E43003F00F03C7F8D830D7F8D830002B5C
:10368C000FD1D7F8E43003F02003002B09D0D7F882
:10369C00E03003F02003002B03D0786800F063FBCC
:1036AC005BE2D7F8D830002B00F0DE80D7F8DC30A6
:1036BC0003F00103002B06D1D7F8E03003F490732C
:1036CC00002B00F0D180D7F8E43003F00103002B7D
:1036DC000BD0D7F8E03003F48073002B05D07B6857
:1036EC005B6C43F001027B685A64D7F8E43003F05A
:1036FC000403002B0BD0D7F8DC3003F00103002BB4
:10370C0005D07B685B6C43F002027B685A64D7F887
:10371C00E43003F00203002B0BD0D7F8DC3003F0BD
:10372C000103002B05D07B685B6C43F004027B68C3
:10373C005A64D7F8E43003F00803002B11D0D7F803
:10374C00E03003F02003002B05D1D7F8DC3003F078
:10375C000103002B05D07B685B6C43F008027B688F
:10376C005A647B685B6C002B00F0F281D7F8E43074
:10377C0003F02003002B08D0D7F8E03003F020032F
:10378C00002B02D0786800F0EEFA7B681B685B694E
:10379C0003F04003002B14BF01230023DBB2C7F856
:1037AC00D4307B685B6C03F00803002B03D1D7F893
:1037BC00D430002B4FD0786800F0F8F97B681B6888
:1037CC005B6903F04003002B41D07B681B6814330A
:1037DC00C7F89C30D7F89C3053E8003FC7F89830B6
:1037EC00D7F8983023F04003C7F8D0307B681B68BB
:1037FC001433D7F8D020C7F8A820C7F8A430D7F8CE
:10380C00A410D7F8A82041E80023C7F8A030D7F8B7
:10381C00A030002BD9D17B68DB6B002B13D07B68DD
:10382C00DB6B7E4A5A637B68DB6B1846FEF71EF92E
:10383C000346002B16D07B68DB6B5B6B7A68D26B14
:10384C00104698470EE0786800F09CF90AE078681A
:10385C0000F098F906E0786800F094F97B68002293
:10386C005A6475E100BF73E17B681B6B012B40F060
:10387C004F81D7F8E43003F01003002B00F048819F
:10388C00D7F8E03003F01003002B00F04181002347
:10389C00BB607B681B681B68BB607B681B685B68D4
:1038AC00BB60BB687B681B685B6903F04003002B43
:1038BC0000F0B6807B68DB6B1B685B68A7F8BE30DA
:1038CC00B7F8BE30002B00F045817B689B8DB7F8B4
:1038DC00BE209A4280F03E817B68B7F8BE20DA8524
:1038EC007B68DB6B9B69202B00F088807B681B68F6
:1038FC000C33C7F88830D7F8883053E8003FC7F846
:10390C008430D7F8843023F48073C7F8B8307B68E0
:10391C001B680C33D7F8B820C7F89420C7F8903040
:10392C00D7F89010D7F8942041E80023C7F88C30D2
:10393C00D7F88C30002BD9D17B681B6814337B678C
:10394C007B6F53E8003F3B673B6F23F00103C7F8E5
:10395C00B4307B681B681433D7F8B420C7F88020C8
:10396C00FB67F96FD7F8802041E80023BB67BB6F7A
:10397C00002BE1D17B681B6814333B663B6E53E82C
:10398C00003FFB65FB6D23F04003C7F8B0307B684C
:10399C001B681433D7F8B020FA66BB66B96EFA6EA2
:1039AC0041E800237B667B6E002BE3D17B682022F1
:1039BC0083F842207B6800221A637B681B680C33F7
:1039CC00FB64FB6C53E8003FBB64BB6C23F010033F
:1039DC00C7F8AC307B681B680C33D7F8AC20BA65E1
:1039EC007B65796DBA6D41E800233B653B6D002B1F
:1039FC00E3D17B68DB6B1846FDF7FDFF7B68022289
:103A0C005A637B689A8D7B68DB8D9BB2D31A9BB211
:103A1C001946786800F0BFF89CE000BF7D3C0008B8
:103A2C007B689A8D7B68DB8D9BB2D31AA7F8CE305E
:103A3C007B68DB8D9BB2002B00F08E80B7F8CE300C
:103A4C00002B00F089807B681B680C33BB63BB6B5D
:103A5C0053E8003F7B637B6B23F49073C7F8C8304B
:103A6C007B681B680C33D7F8C8207A643B64396CCC
:103A7C007A6C41E80023FB63FB6B002BE3D17B6882
:103A8C001B6814337B627B6A53E8003F3B623B6AE2
:103A9C0023F00103C7F8C4307B681B681433D7F8D4
:103AAC00C4203A63FB62F96A3A6B41E80023BB62BB
:103ABC00BB6A002BE3D17B68202283F842207B6811
:103ACC0000221A637B681B680C333B613B6953E82B
:103ADC00003FFB60FB6823F01003C7F8C0307B6825
:103AEC001B680C33D7F8C020FA61BB61B969FA695D
:103AFC0041E800237B617B69002BE3D17B680222C8
:103B0C005A63B7F8CE301946786800F044F823E0D1
:103B1C00D7F8E43003F08003002B09D0D7F8E0305D
:103B2C0003F08003002B03D0786800F0B5F814E0A4
:103B3C00D7F8E43003F04003002B0ED0D7F8E03078
:103B4C0003F04003002B08D0786800F0F4F804E090
:103B5C0000BF02E000BF00E000BFE837BD4680BDFB
:103B6C0080B483B000AF786000BF0C37BD4680BC1A
:103B7C00704780B483B000AF786000BF0C37BD468F
:103B8C0080BC704780B483B000AF786000BF0C3746
:103B9C00BD4680BC704780B483B000AF78600B46E4
:103BAC007B8000BF0C37BD4680BC704780B495B09D
:103BBC0000AF78607B681B680C337B637B6B53E8CE
:103BCC00003F3B633B6B23F49073FB647B681B6887
:103BDC000C33FA6C3A64FB63F96B3A6C41E80023E2
:103BEC00BB63BB6B002BE5D17B681B6814333B625A
:103BFC003B6A53E8003FFB61FB6923F00103BB64A4
:103C0C007B681B681433BA6CFA62BB62B96AFA6AD5
:103C1C0041E800237B627B6A002BE5D17B681B6B40
:103C2C00012B19D17B681B680C33FB60FB6853E8D4
:103C3C00003FBB60BB6823F010037B647B681B6890
:103C4C000C337A6CBA617B617969BA6941E80023FB
:103C5C003B613B69002BE5D17B68202283F8422035
:103C6C007B6800221A6300BF5437BD4680BC704786
:103C7C0080B584B000AF78607B685B6AFB60FB68E2
:103C8C000022DA85FB680022DA84F868FFF77AFFF5
:103C9C0000BF1037BD4680BD80B485B000AF7860E2
:103CAC007B6893F84130DBB2212B3ED17B689B685B
:103CBC00B3F5805F14D17B681B69002B10D17B6836
:103CCC001B6AFB60FB681B881A467B681B68C2F387
:103CDC0008025A607B681B6A9A1C7B681A6208E0AF
:103CEC007B681B6A591C7A6811621A787B681B689E
:103CFC005A607B68DB8C9BB2013B9BB27A6819469D
:103D0C00D184002B0FD17B681B68DA687B681B6839
:103D1C0022F08002DA607B681B68DA687B681B68BB
:103D2C0042F04002DA60002300E002231846143708
:103D3C00BD4680BC704780B582B000AF78607B68B0
:103D4C001B68DA687B681B6822F04002DA607B68CB
:103D5C00202283F841207868FFF702FF00231846E1
:103D6C000837BD4680BD80B58CB000AF78607B68ED
:103D7C0093F84230DBB2222B40F0AE807B689B681C
:103D8C00B3F5805F17D17B681B69002B13D100231F
:103D9C00FB627B689B6ABB627B681B685B689BB23F
:103DAC00C3F308039AB2BB6A1A807B689B6A9A1C9D
:103DBC007B689A6226E07B689B6AFB620023BB628D
:103DCC007B689B68B3F5805F07D07B689B68002B92
:103DDC000AD17B681B69002B06D17B681B685B686A
:103DEC00DAB2FB6A1A7008E07B681B685B68DBB2AE
:103DFC0003F07F03DAB2FB6A1A707B689B6A5A1C69
:103E0C007B689A627B68DB8D9BB2013B9BB27A68C4
:103E1C001946D185002B5DD17B681B68DA687B68FD
:103E2C001B6822F02002DA607B681B68DA687B680A
:103E3C001B6822F48072DA607B681B685A697B68A5
:103E4C001B6822F001025A617B68202283F8422011
:103E5C007B6800225A637B681B6B012B35D17B6816
:103E6C0000221A637B681B680C337B617B6953E807
:103E7C00003F3B613B6923F010037B627B681B684E
:103E8C000C337A6A3A62FB61F9693A6A41E80023B9
:103E9C00BB61BB69002BE5D17B681B681B6803F019
:103EAC001003102B0AD10023FB607B681B681B6876
:103EBC00FB607B681B685B68FB60FB687B689B8DA9
:103ECC0019467868FFF767FE02E07868FFF751FE45
:103EDC00002302E0002300E0022318463037BD46E1
:103EEC0080BD000080B584B000AF78607B681B6833
:103EFC001B6923F440517B68DA687B681B680A43B2
:103F0C001A617B689A687B681B691A437B685B69DA
:103F1C001343BB607B681B68DB6823F4B05323F04E
:103F2C000C037A681268B9680B43D3607B681B6812
:103F3C005B6923F440717B689A697B681B680A4350
:103F4C005A617B681B682C4A934203D1FEF796FB9F
:103F5C00F86002E0FEF77EFBF860FA6813469B00FF
:103F6C0013449A001A447B685B689B00B2FBF3F322
:103F7C00224AA2FB03235B091901FA6813469B0032
:103F8C0013449A001A447B685B689B00B2FBF3F203
:103F9C001A4BA3FB02035B09642000FB03F3D31A47
:103FAC001B013233154AA2FB03235B0903F0F00318
:103FBC001944FA6813469B0013449A001A447B6810
:103FCC005B689B00B2FBF3F20C4BA3FB02035B0997
:103FDC00642000FB03F3D31A1B013233074AA2FB04
:103FEC0003235B0903F00F027B681B680A449A6089
:103FFC0000BF1037BD4680BD003801401F85EB5116
:10400C0070B500260C4D0D4C641BA410A64209D1B2
:10401C0000F022F800260A4D0A4C641BA410A6429C
:10402C0005D170BD55F8043B98470136EEE755F8BD
:10403C00043B98470136F2E7A8400008A840000866
:10404C00A8400008AC40000803460244934200D14B
:10405C00704703F8011BF9E7F8B500BFF8BC08BCC2
:10406C009E467047F8B500BFF8BC08BC9E4670472A
:10407C00000000000000000001020304060708090C
:10408C0000000000010203040203040506070809EE
:0C409C000A0B0C0D0E0F101001020000AA
:0440A80031010008DA
:0440AC000D010008FA
:1040B000020010000100010000080140000801405A
:1040C000000C014000080140010000000100000058
:1040D00001000000000000000100000001000000DD
:1040E00001000000000000000100000001000000CD
:1040F00001000000000000000100000001000000BD
:104100000100000000000000C8000000C80000001E
:10411000C8000000C8000000050000000200000008
:104120000300000001000000130000000024F40060
:08413000100000000100000076
:040000050800169148
:00000001FF
